{
	"contracts/MathOperation.sol": {
		"MathTest": {
			"abi": [
				{
					"inputs": [
						{
							"internalType": "uint256",
							"name": "x",
							"type": "uint256"
						},
						{
							"internalType": "uint256",
							"name": "y",
							"type": "uint256"
						},
						{
							"internalType": "uint256",
							"name": "z",
							"type": "uint256"
						}
					],
					"name": "getAverage",
					"outputs": [
						{
							"internalType": "uint256",
							"name": "",
							"type": "uint256"
						}
					],
					"stateMutability": "pure",
					"type": "function"
				},
				{
					"inputs": [],
					"name": "getDivide",
					"outputs": [
						{
							"internalType": "uint256",
							"name": "",
							"type": "uint256"
						}
					],
					"stateMutability": "view",
					"type": "function"
				},
				{
					"inputs": [],
					"name": "getMinus",
					"outputs": [
						{
							"internalType": "uint256",
							"name": "",
							"type": "uint256"
						}
					],
					"stateMutability": "view",
					"type": "function"
				},
				{
					"inputs": [],
					"name": "getMultiply",
					"outputs": [
						{
							"internalType": "uint256",
							"name": "",
							"type": "uint256"
						}
					],
					"stateMutability": "view",
					"type": "function"
				},
				{
					"inputs": [],
					"name": "getPlus",
					"outputs": [
						{
							"internalType": "uint256",
							"name": "",
							"type": "uint256"
						}
					],
					"stateMutability": "view",
					"type": "function"
				},
				{
					"inputs": [],
					"name": "getScrap",
					"outputs": [
						{
							"internalType": "uint256",
							"name": "",
							"type": "uint256"
						}
					],
					"stateMutability": "view",
					"type": "function"
				}
			],
			"devdoc": {
				"kind": "dev",
				"methods": {},
				"version": 1
			},
			"evm": {
				"assembly": "    /* \"contracts/MathOperation.sol\":59:617  contract MathTest{... */\n  mstore(0x40, 0x80)\n    /* \"contracts/MathOperation.sol\":99:101  50 */\n  0x32\n    /* \"contracts/MathOperation.sol\":89:101  uint  a = 50 */\n  0x00\n  sstore\n    /* \"contracts/MathOperation.sol\":118:121  100 */\n  0x64\n    /* \"contracts/MathOperation.sol\":108:121  uint  b = 100 */\n  0x01\n  sstore\n    /* \"contracts/MathOperation.sol\":59:617  contract MathTest{... */\n  callvalue\n  dup1\n  iszero\n  tag_1\n  jumpi\n  revert(0x00, 0x00)\ntag_1:\n  pop\n  dataSize(sub_0)\n  dup1\n  dataOffset(sub_0)\n  0x00\n  codecopy\n  0x00\n  return\nstop\n\nsub_0: assembly {\n        /* \"contracts/MathOperation.sol\":59:617  contract MathTest{... */\n      mstore(0x40, 0x80)\n      callvalue\n      dup1\n      iszero\n      tag_1\n      jumpi\n      revert(0x00, 0x00)\n    tag_1:\n      pop\n      jumpi(tag_2, lt(calldatasize, 0x04))\n      shr(0xe0, calldataload(0x00))\n      dup1\n      0x1f6d083c\n      eq\n      tag_3\n      jumpi\n      dup1\n      0x73bef622\n      eq\n      tag_4\n      jumpi\n      dup1\n      0x9dbe552e\n      eq\n      tag_5\n      jumpi\n      dup1\n      0xbd7f1cba\n      eq\n      tag_6\n      jumpi\n      dup1\n      0xdfee1840\n      eq\n      tag_7\n      jumpi\n      dup1\n      0xf8433f34\n      eq\n      tag_8\n      jumpi\n    tag_2:\n      revert(0x00, 0x00)\n        /* \"contracts/MathOperation.sol\":421:486  function getScrap() public view returns(uint){... */\n    tag_3:\n      tag_9\n      tag_10\n      jump\t// in\n    tag_9:\n      mload(0x40)\n      tag_11\n      swap2\n      swap1\n      tag_12\n      jump\t// in\n    tag_11:\n      mload(0x40)\n      dup1\n      swap2\n      sub\n      swap1\n      return\n        /* \"contracts/MathOperation.sol\":265:342  function getMultiply() public view returns(uint){... */\n    tag_4:\n      tag_13\n      tag_14\n      jump\t// in\n    tag_13:\n      mload(0x40)\n      tag_15\n      swap2\n      swap1\n      tag_12\n      jump\t// in\n    tag_15:\n      mload(0x40)\n      dup1\n      swap2\n      sub\n      swap1\n      return\n        /* \"contracts/MathOperation.sol\":128:191  function getPlus() public view returns(uint){... */\n    tag_5:\n      tag_16\n      tag_17\n      jump\t// in\n    tag_16:\n      mload(0x40)\n      tag_18\n      swap2\n      swap1\n      tag_12\n      jump\t// in\n    tag_18:\n      mload(0x40)\n      dup1\n      swap2\n      sub\n      swap1\n      return\n        /* \"contracts/MathOperation.sol\":195:261  function  getMinus() public view returns(uint){... */\n    tag_6:\n      tag_19\n      tag_20\n      jump\t// in\n    tag_19:\n      mload(0x40)\n      tag_21\n      swap2\n      swap1\n      tag_12\n      jump\t// in\n    tag_21:\n      mload(0x40)\n      dup1\n      swap2\n      sub\n      swap1\n      return\n        /* \"contracts/MathOperation.sol\":346:417  function getDivide() public view returns(uint){... */\n    tag_7:\n      tag_22\n      tag_23\n      jump\t// in\n    tag_22:\n      mload(0x40)\n      tag_24\n      swap2\n      swap1\n      tag_12\n      jump\t// in\n    tag_24:\n      mload(0x40)\n      dup1\n      swap2\n      sub\n      swap1\n      return\n        /* \"contracts/MathOperation.sol\":490:612  function getAverage(uint x,uint y,uint z) public pure returns(uint){... */\n    tag_8:\n      tag_25\n      0x04\n      dup1\n      calldatasize\n      sub\n      dup2\n      add\n      swap1\n      tag_26\n      swap2\n      swap1\n      tag_27\n      jump\t// in\n    tag_26:\n      tag_28\n      jump\t// in\n    tag_25:\n      mload(0x40)\n      tag_29\n      swap2\n      swap1\n      tag_12\n      jump\t// in\n    tag_29:\n      mload(0x40)\n      dup1\n      swap2\n      sub\n      swap1\n      return\n        /* \"contracts/MathOperation.sol\":421:486  function getScrap() public view returns(uint){... */\n    tag_10:\n        /* \"contracts/MathOperation.sol\":461:465  uint */\n      0x00\n        /* \"contracts/MathOperation.sol\":481:482  b */\n      sload(0x01)\n        /* \"contracts/MathOperation.sol\":479:480  a */\n      sload(0x00)\n        /* \"contracts/MathOperation.sol\":479:482  a%b */\n      tag_31\n      swap2\n      swap1\n      tag_32\n      jump\t// in\n    tag_31:\n        /* \"contracts/MathOperation.sol\":471:482  return  a%b */\n      swap1\n      pop\n        /* \"contracts/MathOperation.sol\":421:486  function getScrap() public view returns(uint){... */\n      swap1\n      jump\t// out\n        /* \"contracts/MathOperation.sol\":265:342  function getMultiply() public view returns(uint){... */\n    tag_14:\n        /* \"contracts/MathOperation.sol\":308:312  uint */\n      0x00\n        /* \"contracts/MathOperation.sol\":333:334  b */\n      sload(0x01)\n        /* \"contracts/MathOperation.sol\":331:332  a */\n      sload(0x00)\n        /* \"contracts/MathOperation.sol\":331:334  a*b */\n      tag_34\n      swap2\n      swap1\n      tag_35\n      jump\t// in\n    tag_34:\n        /* \"contracts/MathOperation.sol\":324:334  return a*b */\n      swap1\n      pop\n        /* \"contracts/MathOperation.sol\":265:342  function getMultiply() public view returns(uint){... */\n      swap1\n      jump\t// out\n        /* \"contracts/MathOperation.sol\":128:191  function getPlus() public view returns(uint){... */\n    tag_17:\n        /* \"contracts/MathOperation.sol\":167:171  uint */\n      0x00\n        /* \"contracts/MathOperation.sol\":186:187  b */\n      sload(0x01)\n        /* \"contracts/MathOperation.sol\":184:185  a */\n      sload(0x00)\n        /* \"contracts/MathOperation.sol\":184:187  a+b */\n      tag_37\n      swap2\n      swap1\n      tag_38\n      jump\t// in\n    tag_37:\n        /* \"contracts/MathOperation.sol\":176:187  return  a+b */\n      swap1\n      pop\n        /* \"contracts/MathOperation.sol\":128:191  function getPlus() public view returns(uint){... */\n      swap1\n      jump\t// out\n        /* \"contracts/MathOperation.sol\":195:261  function  getMinus() public view returns(uint){... */\n    tag_20:\n        /* \"contracts/MathOperation.sol\":236:240  uint */\n      0x00\n        /* \"contracts/MathOperation.sol\":254:255  b */\n      sload(0x01)\n        /* \"contracts/MathOperation.sol\":252:253  a */\n      sload(0x00)\n        /* \"contracts/MathOperation.sol\":252:255  a-b */\n      tag_40\n      swap2\n      swap1\n      tag_41\n      jump\t// in\n    tag_40:\n        /* \"contracts/MathOperation.sol\":245:255  return a-b */\n      swap1\n      pop\n        /* \"contracts/MathOperation.sol\":195:261  function  getMinus() public view returns(uint){... */\n      swap1\n      jump\t// out\n        /* \"contracts/MathOperation.sol\":346:417  function getDivide() public view returns(uint){... */\n    tag_23:\n        /* \"contracts/MathOperation.sol\":387:391  uint */\n      0x00\n        /* \"contracts/MathOperation.sol\":410:411  b */\n      sload(0x01)\n        /* \"contracts/MathOperation.sol\":408:409  a */\n      sload(0x00)\n        /* \"contracts/MathOperation.sol\":408:411  a/b */\n      tag_43\n      swap2\n      swap1\n      tag_44\n      jump\t// in\n    tag_43:\n        /* \"contracts/MathOperation.sol\":400:411  return  a/b */\n      swap1\n      pop\n        /* \"contracts/MathOperation.sol\":346:417  function getDivide() public view returns(uint){... */\n      swap1\n      jump\t// out\n        /* \"contracts/MathOperation.sol\":490:612  function getAverage(uint x,uint y,uint z) public pure returns(uint){... */\n    tag_28:\n        /* \"contracts/MathOperation.sol\":552:556  uint */\n      0x00\n        /* \"contracts/MathOperation.sol\":563:574  uint result */\n      0x00\n        /* \"contracts/MathOperation.sol\":585:586  3 */\n      0x03\n        /* \"contracts/MathOperation.sol\":582:583  z */\n      dup4\n        /* \"contracts/MathOperation.sol\":580:581  y */\n      dup6\n        /* \"contracts/MathOperation.sol\":578:579  x */\n      dup8\n        /* \"contracts/MathOperation.sol\":578:581  x+y */\n      tag_46\n      swap2\n      swap1\n      tag_38\n      jump\t// in\n    tag_46:\n        /* \"contracts/MathOperation.sol\":578:583  x+y+z */\n      tag_47\n      swap2\n      swap1\n      tag_38\n      jump\t// in\n    tag_47:\n        /* \"contracts/MathOperation.sol\":577:586  (x+y+z)/3 */\n      tag_48\n      swap2\n      swap1\n      tag_44\n      jump\t// in\n    tag_48:\n        /* \"contracts/MathOperation.sol\":563:586  uint result = (x+y+z)/3 */\n      swap1\n      pop\n        /* \"contracts/MathOperation.sol\":600:606  result */\n      dup1\n        /* \"contracts/MathOperation.sol\":593:606  return result */\n      swap2\n      pop\n      pop\n        /* \"contracts/MathOperation.sol\":490:612  function getAverage(uint x,uint y,uint z) public pure returns(uint){... */\n      swap4\n      swap3\n      pop\n      pop\n      pop\n      jump\t// out\n        /* \"#utility.yul\":7:84   */\n    tag_49:\n        /* \"#utility.yul\":44:51   */\n      0x00\n        /* \"#utility.yul\":73:78   */\n      dup2\n        /* \"#utility.yul\":62:78   */\n      swap1\n      pop\n        /* \"#utility.yul\":7:84   */\n      swap2\n      swap1\n      pop\n      jump\t// out\n        /* \"#utility.yul\":90:208   */\n    tag_50:\n        /* \"#utility.yul\":177:201   */\n      tag_61\n        /* \"#utility.yul\":195:200   */\n      dup2\n        /* \"#utility.yul\":177:201   */\n      tag_49\n      jump\t// in\n    tag_61:\n        /* \"#utility.yul\":172:175   */\n      dup3\n        /* \"#utility.yul\":165:202   */\n      mstore\n        /* \"#utility.yul\":90:208   */\n      pop\n      pop\n      jump\t// out\n        /* \"#utility.yul\":214:436   */\n    tag_12:\n        /* \"#utility.yul\":307:311   */\n      0x00\n        /* \"#utility.yul\":345:347   */\n      0x20\n        /* \"#utility.yul\":334:343   */\n      dup3\n        /* \"#utility.yul\":330:348   */\n      add\n        /* \"#utility.yul\":322:348   */\n      swap1\n      pop\n        /* \"#utility.yul\":358:429   */\n      tag_63\n        /* \"#utility.yul\":426:427   */\n      0x00\n        /* \"#utility.yul\":415:424   */\n      dup4\n        /* \"#utility.yul\":411:428   */\n      add\n        /* \"#utility.yul\":402:408   */\n      dup5\n        /* \"#utility.yul\":358:429   */\n      tag_50\n      jump\t// in\n    tag_63:\n        /* \"#utility.yul\":214:436   */\n      swap3\n      swap2\n      pop\n      pop\n      jump\t// out\n        /* \"#utility.yul\":523:640   */\n    tag_52:\n        /* \"#utility.yul\":632:633   */\n      0x00\n        /* \"#utility.yul\":629:630   */\n      0x00\n        /* \"#utility.yul\":622:634   */\n      revert\n        /* \"#utility.yul\":769:891   */\n    tag_54:\n        /* \"#utility.yul\":842:866   */\n      tag_68\n        /* \"#utility.yul\":860:865   */\n      dup2\n        /* \"#utility.yul\":842:866   */\n      tag_49\n      jump\t// in\n    tag_68:\n        /* \"#utility.yul\":835:840   */\n      dup2\n        /* \"#utility.yul\":832:867   */\n      eq\n        /* \"#utility.yul\":822:885   */\n      tag_69\n      jumpi\n        /* \"#utility.yul\":881:882   */\n      0x00\n        /* \"#utility.yul\":878:879   */\n      0x00\n        /* \"#utility.yul\":871:883   */\n      revert\n        /* \"#utility.yul\":822:885   */\n    tag_69:\n        /* \"#utility.yul\":769:891   */\n      pop\n      jump\t// out\n        /* \"#utility.yul\":897:1036   */\n    tag_55:\n        /* \"#utility.yul\":943:948   */\n      0x00\n        /* \"#utility.yul\":981:987   */\n      dup2\n        /* \"#utility.yul\":968:988   */\n      calldataload\n        /* \"#utility.yul\":959:988   */\n      swap1\n      pop\n        /* \"#utility.yul\":997:1030   */\n      tag_71\n        /* \"#utility.yul\":1024:1029   */\n      dup2\n        /* \"#utility.yul\":997:1030   */\n      tag_54\n      jump\t// in\n    tag_71:\n        /* \"#utility.yul\":897:1036   */\n      swap3\n      swap2\n      pop\n      pop\n      jump\t// out\n        /* \"#utility.yul\":1042:1661   */\n    tag_27:\n        /* \"#utility.yul\":1119:1125   */\n      0x00\n        /* \"#utility.yul\":1127:1133   */\n      0x00\n        /* \"#utility.yul\":1135:1141   */\n      0x00\n        /* \"#utility.yul\":1184:1186   */\n      0x60\n        /* \"#utility.yul\":1172:1181   */\n      dup5\n        /* \"#utility.yul\":1163:1170   */\n      dup7\n        /* \"#utility.yul\":1159:1182   */\n      sub\n        /* \"#utility.yul\":1155:1187   */\n      slt\n        /* \"#utility.yul\":1152:1271   */\n      iszero\n      tag_73\n      jumpi\n        /* \"#utility.yul\":1190:1269   */\n      tag_74\n      tag_52\n      jump\t// in\n    tag_74:\n        /* \"#utility.yul\":1152:1271   */\n    tag_73:\n        /* \"#utility.yul\":1310:1311   */\n      0x00\n        /* \"#utility.yul\":1335:1388   */\n      tag_75\n        /* \"#utility.yul\":1380:1387   */\n      dup7\n        /* \"#utility.yul\":1371:1377   */\n      dup3\n        /* \"#utility.yul\":1360:1369   */\n      dup8\n        /* \"#utility.yul\":1356:1378   */\n      add\n        /* \"#utility.yul\":1335:1388   */\n      tag_55\n      jump\t// in\n    tag_75:\n        /* \"#utility.yul\":1325:1388   */\n      swap4\n      pop\n        /* \"#utility.yul\":1281:1398   */\n      pop\n        /* \"#utility.yul\":1437:1439   */\n      0x20\n        /* \"#utility.yul\":1463:1516   */\n      tag_76\n        /* \"#utility.yul\":1508:1515   */\n      dup7\n        /* \"#utility.yul\":1499:1505   */\n      dup3\n        /* \"#utility.yul\":1488:1497   */\n      dup8\n        /* \"#utility.yul\":1484:1506   */\n      add\n        /* \"#utility.yul\":1463:1516   */\n      tag_55\n      jump\t// in\n    tag_76:\n        /* \"#utility.yul\":1453:1516   */\n      swap3\n      pop\n        /* \"#utility.yul\":1408:1526   */\n      pop\n        /* \"#utility.yul\":1565:1567   */\n      0x40\n        /* \"#utility.yul\":1591:1644   */\n      tag_77\n        /* \"#utility.yul\":1636:1643   */\n      dup7\n        /* \"#utility.yul\":1627:1633   */\n      dup3\n        /* \"#utility.yul\":1616:1625   */\n      dup8\n        /* \"#utility.yul\":1612:1634   */\n      add\n        /* \"#utility.yul\":1591:1644   */\n      tag_55\n      jump\t// in\n    tag_77:\n        /* \"#utility.yul\":1581:1644   */\n      swap2\n      pop\n        /* \"#utility.yul\":1536:1654   */\n      pop\n        /* \"#utility.yul\":1042:1661   */\n      swap3\n      pop\n      swap3\n      pop\n      swap3\n      jump\t// out\n        /* \"#utility.yul\":1667:1847   */\n    tag_56:\n        /* \"#utility.yul\":1715:1792   */\n      0x4e487b7100000000000000000000000000000000000000000000000000000000\n        /* \"#utility.yul\":1712:1713   */\n      0x00\n        /* \"#utility.yul\":1705:1793   */\n      mstore\n        /* \"#utility.yul\":1812:1816   */\n      0x12\n        /* \"#utility.yul\":1809:1810   */\n      0x04\n        /* \"#utility.yul\":1802:1817   */\n      mstore\n        /* \"#utility.yul\":1836:1840   */\n      0x24\n        /* \"#utility.yul\":1833:1834   */\n      0x00\n        /* \"#utility.yul\":1826:1841   */\n      revert\n        /* \"#utility.yul\":1853:2029   */\n    tag_32:\n        /* \"#utility.yul\":1885:1886   */\n      0x00\n        /* \"#utility.yul\":1902:1922   */\n      tag_80\n        /* \"#utility.yul\":1920:1921   */\n      dup3\n        /* \"#utility.yul\":1902:1922   */\n      tag_49\n      jump\t// in\n    tag_80:\n        /* \"#utility.yul\":1897:1922   */\n      swap2\n      pop\n        /* \"#utility.yul\":1936:1956   */\n      tag_81\n        /* \"#utility.yul\":1954:1955   */\n      dup4\n        /* \"#utility.yul\":1936:1956   */\n      tag_49\n      jump\t// in\n    tag_81:\n        /* \"#utility.yul\":1931:1956   */\n      swap3\n      pop\n        /* \"#utility.yul\":1975:1976   */\n      dup3\n        /* \"#utility.yul\":1965:2000   */\n      tag_82\n      jumpi\n        /* \"#utility.yul\":1980:1998   */\n      tag_83\n      tag_56\n      jump\t// in\n    tag_83:\n        /* \"#utility.yul\":1965:2000   */\n    tag_82:\n        /* \"#utility.yul\":2021:2022   */\n      dup3\n        /* \"#utility.yul\":2018:2019   */\n      dup3\n        /* \"#utility.yul\":2014:2023   */\n      mod\n        /* \"#utility.yul\":2009:2023   */\n      swap1\n      pop\n        /* \"#utility.yul\":1853:2029   */\n      swap3\n      swap2\n      pop\n      pop\n      jump\t// out\n        /* \"#utility.yul\":2035:2215   */\n    tag_57:\n        /* \"#utility.yul\":2083:2160   */\n      0x4e487b7100000000000000000000000000000000000000000000000000000000\n        /* \"#utility.yul\":2080:2081   */\n      0x00\n        /* \"#utility.yul\":2073:2161   */\n      mstore\n        /* \"#utility.yul\":2180:2184   */\n      0x11\n        /* \"#utility.yul\":2177:2178   */\n      0x04\n        /* \"#utility.yul\":2170:2185   */\n      mstore\n        /* \"#utility.yul\":2204:2208   */\n      0x24\n        /* \"#utility.yul\":2201:2202   */\n      0x00\n        /* \"#utility.yul\":2194:2209   */\n      revert\n        /* \"#utility.yul\":2221:2631   */\n    tag_35:\n        /* \"#utility.yul\":2261:2268   */\n      0x00\n        /* \"#utility.yul\":2284:2304   */\n      tag_86\n        /* \"#utility.yul\":2302:2303   */\n      dup3\n        /* \"#utility.yul\":2284:2304   */\n      tag_49\n      jump\t// in\n    tag_86:\n        /* \"#utility.yul\":2279:2304   */\n      swap2\n      pop\n        /* \"#utility.yul\":2318:2338   */\n      tag_87\n        /* \"#utility.yul\":2336:2337   */\n      dup4\n        /* \"#utility.yul\":2318:2338   */\n      tag_49\n      jump\t// in\n    tag_87:\n        /* \"#utility.yul\":2313:2338   */\n      swap3\n      pop\n        /* \"#utility.yul\":2373:2374   */\n      dup3\n        /* \"#utility.yul\":2370:2371   */\n      dup3\n        /* \"#utility.yul\":2366:2375   */\n      mul\n        /* \"#utility.yul\":2395:2425   */\n      tag_88\n        /* \"#utility.yul\":2413:2424   */\n      dup2\n        /* \"#utility.yul\":2395:2425   */\n      tag_49\n      jump\t// in\n    tag_88:\n        /* \"#utility.yul\":2384:2425   */\n      swap2\n      pop\n        /* \"#utility.yul\":2574:2575   */\n      dup3\n        /* \"#utility.yul\":2565:2572   */\n      dup3\n        /* \"#utility.yul\":2561:2576   */\n      div\n        /* \"#utility.yul\":2558:2559   */\n      dup5\n        /* \"#utility.yul\":2555:2577   */\n      eq\n        /* \"#utility.yul\":2535:2536   */\n      dup4\n        /* \"#utility.yul\":2528:2537   */\n      iszero\n        /* \"#utility.yul\":2508:2591   */\n      or\n        /* \"#utility.yul\":2485:2624   */\n      tag_89\n      jumpi\n        /* \"#utility.yul\":2604:2622   */\n      tag_90\n      tag_57\n      jump\t// in\n    tag_90:\n        /* \"#utility.yul\":2485:2624   */\n    tag_89:\n        /* \"#utility.yul\":2269:2631   */\n      pop\n        /* \"#utility.yul\":2221:2631   */\n      swap3\n      swap2\n      pop\n      pop\n      jump\t// out\n        /* \"#utility.yul\":2637:2828   */\n    tag_38:\n        /* \"#utility.yul\":2677:2680   */\n      0x00\n        /* \"#utility.yul\":2696:2716   */\n      tag_92\n        /* \"#utility.yul\":2714:2715   */\n      dup3\n        /* \"#utility.yul\":2696:2716   */\n      tag_49\n      jump\t// in\n    tag_92:\n        /* \"#utility.yul\":2691:2716   */\n      swap2\n      pop\n        /* \"#utility.yul\":2730:2750   */\n      tag_93\n        /* \"#utility.yul\":2748:2749   */\n      dup4\n        /* \"#utility.yul\":2730:2750   */\n      tag_49\n      jump\t// in\n    tag_93:\n        /* \"#utility.yul\":2725:2750   */\n      swap3\n      pop\n        /* \"#utility.yul\":2773:2774   */\n      dup3\n        /* \"#utility.yul\":2770:2771   */\n      dup3\n        /* \"#utility.yul\":2766:2775   */\n      add\n        /* \"#utility.yul\":2759:2775   */\n      swap1\n      pop\n        /* \"#utility.yul\":2794:2797   */\n      dup1\n        /* \"#utility.yul\":2791:2792   */\n      dup3\n        /* \"#utility.yul\":2788:2798   */\n      gt\n        /* \"#utility.yul\":2785:2821   */\n      iszero\n      tag_94\n      jumpi\n        /* \"#utility.yul\":2801:2819   */\n      tag_95\n      tag_57\n      jump\t// in\n    tag_95:\n        /* \"#utility.yul\":2785:2821   */\n    tag_94:\n        /* \"#utility.yul\":2637:2828   */\n      swap3\n      swap2\n      pop\n      pop\n      jump\t// out\n        /* \"#utility.yul\":2834:3028   */\n    tag_41:\n        /* \"#utility.yul\":2874:2878   */\n      0x00\n        /* \"#utility.yul\":2894:2914   */\n      tag_97\n        /* \"#utility.yul\":2912:2913   */\n      dup3\n        /* \"#utility.yul\":2894:2914   */\n      tag_49\n      jump\t// in\n    tag_97:\n        /* \"#utility.yul\":2889:2914   */\n      swap2\n      pop\n        /* \"#utility.yul\":2928:2948   */\n      tag_98\n        /* \"#utility.yul\":2946:2947   */\n      dup4\n        /* \"#utility.yul\":2928:2948   */\n      tag_49\n      jump\t// in\n    tag_98:\n        /* \"#utility.yul\":2923:2948   */\n      swap3\n      pop\n        /* \"#utility.yul\":2972:2973   */\n      dup3\n        /* \"#utility.yul\":2969:2970   */\n      dup3\n        /* \"#utility.yul\":2965:2974   */\n      sub\n        /* \"#utility.yul\":2957:2974   */\n      swap1\n      pop\n        /* \"#utility.yul\":2996:2997   */\n      dup2\n        /* \"#utility.yul\":2990:2994   */\n      dup2\n        /* \"#utility.yul\":2987:2998   */\n      gt\n        /* \"#utility.yul\":2984:3021   */\n      iszero\n      tag_99\n      jumpi\n        /* \"#utility.yul\":3001:3019   */\n      tag_100\n      tag_57\n      jump\t// in\n    tag_100:\n        /* \"#utility.yul\":2984:3021   */\n    tag_99:\n        /* \"#utility.yul\":2834:3028   */\n      swap3\n      swap2\n      pop\n      pop\n      jump\t// out\n        /* \"#utility.yul\":3034:3219   */\n    tag_44:\n        /* \"#utility.yul\":3074:3075   */\n      0x00\n        /* \"#utility.yul\":3091:3111   */\n      tag_102\n        /* \"#utility.yul\":3109:3110   */\n      dup3\n        /* \"#utility.yul\":3091:3111   */\n      tag_49\n      jump\t// in\n    tag_102:\n        /* \"#utility.yul\":3086:3111   */\n      swap2\n      pop\n        /* \"#utility.yul\":3125:3145   */\n      tag_103\n        /* \"#utility.yul\":3143:3144   */\n      dup4\n        /* \"#utility.yul\":3125:3145   */\n      tag_49\n      jump\t// in\n    tag_103:\n        /* \"#utility.yul\":3120:3145   */\n      swap3\n      pop\n        /* \"#utility.yul\":3164:3165   */\n      dup3\n        /* \"#utility.yul\":3154:3189   */\n      tag_104\n      jumpi\n        /* \"#utility.yul\":3169:3187   */\n      tag_105\n      tag_56\n      jump\t// in\n    tag_105:\n        /* \"#utility.yul\":3154:3189   */\n    tag_104:\n        /* \"#utility.yul\":3211:3212   */\n      dup3\n        /* \"#utility.yul\":3208:3209   */\n      dup3\n        /* \"#utility.yul\":3204:3213   */\n      div\n        /* \"#utility.yul\":3199:3213   */\n      swap1\n      pop\n        /* \"#utility.yul\":3034:3219   */\n      swap3\n      swap2\n      pop\n      pop\n      jump\t// out\n\n    auxdata: 0xa26469706673582212200bc434adc970460f67d6339b7dcb8c8a4f8b67e41a15666781822da0a76bfe6764736f6c634300081e0033\n}\n",
				"bytecode": {
					"linkReferences": {},
					"object": "608060405260325f5560646001553480156017575f5ffd5b5061040b806100255f395ff3fe608060405234801561000f575f5ffd5b5060043610610060575f3560e01c80631f6d083c1461006457806373bef622146100825780639dbe552e146100a0578063bd7f1cba146100be578063dfee1840146100dc578063f8433f34146100fa575b5f5ffd5b61006c61012a565b60405161007991906101dd565b60405180910390f35b61008a61013f565b60405161009791906101dd565b60405180910390f35b6100a8610154565b6040516100b591906101dd565b60405180910390f35b6100c6610169565b6040516100d391906101dd565b60405180910390f35b6100e461017e565b6040516100f191906101dd565b60405180910390f35b610114600480360381019061010f9190610224565b610193565b60405161012191906101dd565b60405180910390f35b5f6001545f5461013a91906102a1565b905090565b5f6001545f5461014f91906102fe565b905090565b5f6001545f54610164919061033f565b905090565b5f6001545f546101799190610372565b905090565b5f6001545f5461018e91906103a5565b905090565b5f5f60038385876101a4919061033f565b6101ae919061033f565b6101b891906103a5565b9050809150509392505050565b5f819050919050565b6101d7816101c5565b82525050565b5f6020820190506101f05f8301846101ce565b92915050565b5f5ffd5b610203816101c5565b811461020d575f5ffd5b50565b5f8135905061021e816101fa565b92915050565b5f5f5f6060848603121561023b5761023a6101f6565b5b5f61024886828701610210565b935050602061025986828701610210565b925050604061026a86828701610210565b9150509250925092565b7f4e487b71000000000000000000000000000000000000000000000000000000005f52601260045260245ffd5b5f6102ab826101c5565b91506102b6836101c5565b9250826102c6576102c5610274565b5b828206905092915050565b7f4e487b71000000000000000000000000000000000000000000000000000000005f52601160045260245ffd5b5f610308826101c5565b9150610313836101c5565b9250828202610321816101c5565b91508282048414831517610338576103376102d1565b5b5092915050565b5f610349826101c5565b9150610354836101c5565b925082820190508082111561036c5761036b6102d1565b5b92915050565b5f61037c826101c5565b9150610387836101c5565b925082820390508181111561039f5761039e6102d1565b5b92915050565b5f6103af826101c5565b91506103ba836101c5565b9250826103ca576103c9610274565b5b82820490509291505056fea26469706673582212200bc434adc970460f67d6339b7dcb8c8a4f8b67e41a15666781822da0a76bfe6764736f6c634300081e0033",
					"opcodes": "PUSH1 0x80 PUSH1 0x40 MSTORE PUSH1 0x32 PUSH0 SSTORE PUSH1 0x64 PUSH1 0x1 SSTORE CALLVALUE DUP1 ISZERO PUSH1 0x17 JUMPI PUSH0 PUSH0 REVERT JUMPDEST POP PUSH2 0x40B DUP1 PUSH2 0x25 PUSH0 CODECOPY PUSH0 RETURN INVALID PUSH1 0x80 PUSH1 0x40 MSTORE CALLVALUE DUP1 ISZERO PUSH2 0xF JUMPI PUSH0 PUSH0 REVERT JUMPDEST POP PUSH1 0x4 CALLDATASIZE LT PUSH2 0x60 JUMPI PUSH0 CALLDATALOAD PUSH1 0xE0 SHR DUP1 PUSH4 0x1F6D083C EQ PUSH2 0x64 JUMPI DUP1 PUSH4 0x73BEF622 EQ PUSH2 0x82 JUMPI DUP1 PUSH4 0x9DBE552E EQ PUSH2 0xA0 JUMPI DUP1 PUSH4 0xBD7F1CBA EQ PUSH2 0xBE JUMPI DUP1 PUSH4 0xDFEE1840 EQ PUSH2 0xDC JUMPI DUP1 PUSH4 0xF8433F34 EQ PUSH2 0xFA JUMPI JUMPDEST PUSH0 PUSH0 REVERT JUMPDEST PUSH2 0x6C PUSH2 0x12A JUMP JUMPDEST PUSH1 0x40 MLOAD PUSH2 0x79 SWAP2 SWAP1 PUSH2 0x1DD JUMP JUMPDEST PUSH1 0x40 MLOAD DUP1 SWAP2 SUB SWAP1 RETURN JUMPDEST PUSH2 0x8A PUSH2 0x13F JUMP JUMPDEST PUSH1 0x40 MLOAD PUSH2 0x97 SWAP2 SWAP1 PUSH2 0x1DD JUMP JUMPDEST PUSH1 0x40 MLOAD DUP1 SWAP2 SUB SWAP1 RETURN JUMPDEST PUSH2 0xA8 PUSH2 0x154 JUMP JUMPDEST PUSH1 0x40 MLOAD PUSH2 0xB5 SWAP2 SWAP1 PUSH2 0x1DD JUMP JUMPDEST PUSH1 0x40 MLOAD DUP1 SWAP2 SUB SWAP1 RETURN JUMPDEST PUSH2 0xC6 PUSH2 0x169 JUMP JUMPDEST PUSH1 0x40 MLOAD PUSH2 0xD3 SWAP2 SWAP1 PUSH2 0x1DD JUMP JUMPDEST PUSH1 0x40 MLOAD DUP1 SWAP2 SUB SWAP1 RETURN JUMPDEST PUSH2 0xE4 PUSH2 0x17E JUMP JUMPDEST PUSH1 0x40 MLOAD PUSH2 0xF1 SWAP2 SWAP1 PUSH2 0x1DD JUMP JUMPDEST PUSH1 0x40 MLOAD DUP1 SWAP2 SUB SWAP1 RETURN JUMPDEST PUSH2 0x114 PUSH1 0x4 DUP1 CALLDATASIZE SUB DUP2 ADD SWAP1 PUSH2 0x10F SWAP2 SWAP1 PUSH2 0x224 JUMP JUMPDEST PUSH2 0x193 JUMP JUMPDEST PUSH1 0x40 MLOAD PUSH2 0x121 SWAP2 SWAP1 PUSH2 0x1DD JUMP JUMPDEST PUSH1 0x40 MLOAD DUP1 SWAP2 SUB SWAP1 RETURN JUMPDEST PUSH0 PUSH1 0x1 SLOAD PUSH0 SLOAD PUSH2 0x13A SWAP2 SWAP1 PUSH2 0x2A1 JUMP JUMPDEST SWAP1 POP SWAP1 JUMP JUMPDEST PUSH0 PUSH1 0x1 SLOAD PUSH0 SLOAD PUSH2 0x14F SWAP2 SWAP1 PUSH2 0x2FE JUMP JUMPDEST SWAP1 POP SWAP1 JUMP JUMPDEST PUSH0 PUSH1 0x1 SLOAD PUSH0 SLOAD PUSH2 0x164 SWAP2 SWAP1 PUSH2 0x33F JUMP JUMPDEST SWAP1 POP SWAP1 JUMP JUMPDEST PUSH0 PUSH1 0x1 SLOAD PUSH0 SLOAD PUSH2 0x179 SWAP2 SWAP1 PUSH2 0x372 JUMP JUMPDEST SWAP1 POP SWAP1 JUMP JUMPDEST PUSH0 PUSH1 0x1 SLOAD PUSH0 SLOAD PUSH2 0x18E SWAP2 SWAP1 PUSH2 0x3A5 JUMP JUMPDEST SWAP1 POP SWAP1 JUMP JUMPDEST PUSH0 PUSH0 PUSH1 0x3 DUP4 DUP6 DUP8 PUSH2 0x1A4 SWAP2 SWAP1 PUSH2 0x33F JUMP JUMPDEST PUSH2 0x1AE SWAP2 SWAP1 PUSH2 0x33F JUMP JUMPDEST PUSH2 0x1B8 SWAP2 SWAP1 PUSH2 0x3A5 JUMP JUMPDEST SWAP1 POP DUP1 SWAP2 POP POP SWAP4 SWAP3 POP POP POP JUMP JUMPDEST PUSH0 DUP2 SWAP1 POP SWAP2 SWAP1 POP JUMP JUMPDEST PUSH2 0x1D7 DUP2 PUSH2 0x1C5 JUMP JUMPDEST DUP3 MSTORE POP POP JUMP JUMPDEST PUSH0 PUSH1 0x20 DUP3 ADD SWAP1 POP PUSH2 0x1F0 PUSH0 DUP4 ADD DUP5 PUSH2 0x1CE JUMP JUMPDEST SWAP3 SWAP2 POP POP JUMP JUMPDEST PUSH0 PUSH0 REVERT JUMPDEST PUSH2 0x203 DUP2 PUSH2 0x1C5 JUMP JUMPDEST DUP2 EQ PUSH2 0x20D JUMPI PUSH0 PUSH0 REVERT JUMPDEST POP JUMP JUMPDEST PUSH0 DUP2 CALLDATALOAD SWAP1 POP PUSH2 0x21E DUP2 PUSH2 0x1FA JUMP JUMPDEST SWAP3 SWAP2 POP POP JUMP JUMPDEST PUSH0 PUSH0 PUSH0 PUSH1 0x60 DUP5 DUP7 SUB SLT ISZERO PUSH2 0x23B JUMPI PUSH2 0x23A PUSH2 0x1F6 JUMP JUMPDEST JUMPDEST PUSH0 PUSH2 0x248 DUP7 DUP3 DUP8 ADD PUSH2 0x210 JUMP JUMPDEST SWAP4 POP POP PUSH1 0x20 PUSH2 0x259 DUP7 DUP3 DUP8 ADD PUSH2 0x210 JUMP JUMPDEST SWAP3 POP POP PUSH1 0x40 PUSH2 0x26A DUP7 DUP3 DUP8 ADD PUSH2 0x210 JUMP JUMPDEST SWAP2 POP POP SWAP3 POP SWAP3 POP SWAP3 JUMP JUMPDEST PUSH32 0x4E487B7100000000000000000000000000000000000000000000000000000000 PUSH0 MSTORE PUSH1 0x12 PUSH1 0x4 MSTORE PUSH1 0x24 PUSH0 REVERT JUMPDEST PUSH0 PUSH2 0x2AB DUP3 PUSH2 0x1C5 JUMP JUMPDEST SWAP2 POP PUSH2 0x2B6 DUP4 PUSH2 0x1C5 JUMP JUMPDEST SWAP3 POP DUP3 PUSH2 0x2C6 JUMPI PUSH2 0x2C5 PUSH2 0x274 JUMP JUMPDEST JUMPDEST DUP3 DUP3 MOD SWAP1 POP SWAP3 SWAP2 POP POP JUMP JUMPDEST PUSH32 0x4E487B7100000000000000000000000000000000000000000000000000000000 PUSH0 MSTORE PUSH1 0x11 PUSH1 0x4 MSTORE PUSH1 0x24 PUSH0 REVERT JUMPDEST PUSH0 PUSH2 0x308 DUP3 PUSH2 0x1C5 JUMP JUMPDEST SWAP2 POP PUSH2 0x313 DUP4 PUSH2 0x1C5 JUMP JUMPDEST SWAP3 POP DUP3 DUP3 MUL PUSH2 0x321 DUP2 PUSH2 0x1C5 JUMP JUMPDEST SWAP2 POP DUP3 DUP3 DIV DUP5 EQ DUP4 ISZERO OR PUSH2 0x338 JUMPI PUSH2 0x337 PUSH2 0x2D1 JUMP JUMPDEST JUMPDEST POP SWAP3 SWAP2 POP POP JUMP JUMPDEST PUSH0 PUSH2 0x349 DUP3 PUSH2 0x1C5 JUMP JUMPDEST SWAP2 POP PUSH2 0x354 DUP4 PUSH2 0x1C5 JUMP JUMPDEST SWAP3 POP DUP3 DUP3 ADD SWAP1 POP DUP1 DUP3 GT ISZERO PUSH2 0x36C JUMPI PUSH2 0x36B PUSH2 0x2D1 JUMP JUMPDEST JUMPDEST SWAP3 SWAP2 POP POP JUMP JUMPDEST PUSH0 PUSH2 0x37C DUP3 PUSH2 0x1C5 JUMP JUMPDEST SWAP2 POP PUSH2 0x387 DUP4 PUSH2 0x1C5 JUMP JUMPDEST SWAP3 POP DUP3 DUP3 SUB SWAP1 POP DUP2 DUP2 GT ISZERO PUSH2 0x39F JUMPI PUSH2 0x39E PUSH2 0x2D1 JUMP JUMPDEST JUMPDEST SWAP3 SWAP2 POP POP JUMP JUMPDEST PUSH0 PUSH2 0x3AF DUP3 PUSH2 0x1C5 JUMP JUMPDEST SWAP2 POP PUSH2 0x3BA DUP4 PUSH2 0x1C5 JUMP JUMPDEST SWAP3 POP DUP3 PUSH2 0x3CA JUMPI PUSH2 0x3C9 PUSH2 0x274 JUMP JUMPDEST JUMPDEST DUP3 DUP3 DIV SWAP1 POP SWAP3 SWAP2 POP POP JUMP INVALID LOG2 PUSH5 0x6970667358 0x22 SLT KECCAK256 SIGNEXTEND 0xC4 CALLVALUE 0xAD 0xC9 PUSH17 0x460F67D6339B7DCB8C8A4F8B67E41A1566 PUSH8 0x81822DA0A76BFE67 PUSH5 0x736F6C6343 STOP ADDMOD 0x1E STOP CALLER "
				},
				"gasEstimates": {
					"creation": {
						"codeDepositCost": "207000",
						"executionCost": "44460",
						"totalCost": "251460"
					},
					"external": {
						"getAverage(uint256,uint256,uint256)": "infinite",
						"getDivide()": "infinite",
						"getMinus()": "infinite",
						"getMultiply()": "infinite",
						"getPlus()": "infinite",
						"getScrap()": "infinite"
					}
				},
				"methodIdentifiers": {
					"getAverage(uint256,uint256,uint256)": "f8433f34",
					"getDivide()": "dfee1840",
					"getMinus()": "bd7f1cba",
					"getMultiply()": "73bef622",
					"getPlus()": "9dbe552e",
					"getScrap()": "1f6d083c"
				}
			},
			"storageLayout": {
				"storage": [
					{
						"astId": 4,
						"contract": "contracts/MathOperation.sol:MathTest",
						"label": "a",
						"offset": 0,
						"slot": "0",
						"type": "t_uint256"
					},
					{
						"astId": 7,
						"contract": "contracts/MathOperation.sol:MathTest",
						"label": "b",
						"offset": 0,
						"slot": "1",
						"type": "t_uint256"
					}
				],
				"types": {
					"t_uint256": {
						"encoding": "inplace",
						"label": "uint256",
						"numberOfBytes": "32"
					}
				}
			},
			"userdoc": {
				"kind": "user",
				"methods": {},
				"version": 1
			}
		}
	}
}